{
  "address": "0x1c9fD50dF7a4f066884b58A05D91e4b55005876A",
  "abi": [
    {
      "inputs": [],
      "stateMutability": "nonpayable",
      "type": "constructor"
    },
    {
      "anonymous": false,
      "inputs": [
        {
          "indexed": true,
          "internalType": "address",
          "name": "owner",
          "type": "address"
        },
        {
          "indexed": true,
          "internalType": "address",
          "name": "approved",
          "type": "address"
        },
        {
          "indexed": true,
          "internalType": "uint256",
          "name": "tokenId",
          "type": "uint256"
        }
      ],
      "name": "Approval",
      "type": "event"
    },
    {
      "anonymous": false,
      "inputs": [
        {
          "indexed": true,
          "internalType": "address",
          "name": "owner",
          "type": "address"
        },
        {
          "indexed": true,
          "internalType": "address",
          "name": "operator",
          "type": "address"
        },
        {
          "indexed": false,
          "internalType": "bool",
          "name": "approved",
          "type": "bool"
        }
      ],
      "name": "ApprovalForAll",
      "type": "event"
    },
    {
      "anonymous": false,
      "inputs": [
        {
          "indexed": true,
          "internalType": "address",
          "name": "from",
          "type": "address"
        },
        {
          "indexed": true,
          "internalType": "address",
          "name": "to",
          "type": "address"
        },
        {
          "indexed": true,
          "internalType": "uint256",
          "name": "tokenId",
          "type": "uint256"
        }
      ],
      "name": "Transfer",
      "type": "event"
    },
    {
      "inputs": [],
      "name": "TOKEN_URI",
      "outputs": [
        {
          "internalType": "string",
          "name": "",
          "type": "string"
        }
      ],
      "stateMutability": "view",
      "type": "function"
    },
    {
      "inputs": [
        {
          "internalType": "address",
          "name": "to",
          "type": "address"
        },
        {
          "internalType": "uint256",
          "name": "tokenId",
          "type": "uint256"
        }
      ],
      "name": "approve",
      "outputs": [],
      "stateMutability": "nonpayable",
      "type": "function"
    },
    {
      "inputs": [
        {
          "internalType": "address",
          "name": "owner",
          "type": "address"
        }
      ],
      "name": "balanceOf",
      "outputs": [
        {
          "internalType": "uint256",
          "name": "",
          "type": "uint256"
        }
      ],
      "stateMutability": "view",
      "type": "function"
    },
    {
      "inputs": [
        {
          "internalType": "uint256",
          "name": "tokenId",
          "type": "uint256"
        }
      ],
      "name": "getApproved",
      "outputs": [
        {
          "internalType": "address",
          "name": "",
          "type": "address"
        }
      ],
      "stateMutability": "view",
      "type": "function"
    },
    {
      "inputs": [],
      "name": "getTokenCounter",
      "outputs": [
        {
          "internalType": "uint256",
          "name": "",
          "type": "uint256"
        }
      ],
      "stateMutability": "view",
      "type": "function"
    },
    {
      "inputs": [
        {
          "internalType": "address",
          "name": "owner",
          "type": "address"
        },
        {
          "internalType": "address",
          "name": "operator",
          "type": "address"
        }
      ],
      "name": "isApprovedForAll",
      "outputs": [
        {
          "internalType": "bool",
          "name": "",
          "type": "bool"
        }
      ],
      "stateMutability": "view",
      "type": "function"
    },
    {
      "inputs": [],
      "name": "mintNft",
      "outputs": [
        {
          "internalType": "uint256",
          "name": "",
          "type": "uint256"
        }
      ],
      "stateMutability": "nonpayable",
      "type": "function"
    },
    {
      "inputs": [],
      "name": "name",
      "outputs": [
        {
          "internalType": "string",
          "name": "",
          "type": "string"
        }
      ],
      "stateMutability": "view",
      "type": "function"
    },
    {
      "inputs": [
        {
          "internalType": "uint256",
          "name": "tokenId",
          "type": "uint256"
        }
      ],
      "name": "ownerOf",
      "outputs": [
        {
          "internalType": "address",
          "name": "",
          "type": "address"
        }
      ],
      "stateMutability": "view",
      "type": "function"
    },
    {
      "inputs": [
        {
          "internalType": "address",
          "name": "from",
          "type": "address"
        },
        {
          "internalType": "address",
          "name": "to",
          "type": "address"
        },
        {
          "internalType": "uint256",
          "name": "tokenId",
          "type": "uint256"
        }
      ],
      "name": "safeTransferFrom",
      "outputs": [],
      "stateMutability": "nonpayable",
      "type": "function"
    },
    {
      "inputs": [
        {
          "internalType": "address",
          "name": "from",
          "type": "address"
        },
        {
          "internalType": "address",
          "name": "to",
          "type": "address"
        },
        {
          "internalType": "uint256",
          "name": "tokenId",
          "type": "uint256"
        },
        {
          "internalType": "bytes",
          "name": "_data",
          "type": "bytes"
        }
      ],
      "name": "safeTransferFrom",
      "outputs": [],
      "stateMutability": "nonpayable",
      "type": "function"
    },
    {
      "inputs": [
        {
          "internalType": "address",
          "name": "operator",
          "type": "address"
        },
        {
          "internalType": "bool",
          "name": "approved",
          "type": "bool"
        }
      ],
      "name": "setApprovalForAll",
      "outputs": [],
      "stateMutability": "nonpayable",
      "type": "function"
    },
    {
      "inputs": [
        {
          "internalType": "bytes4",
          "name": "interfaceId",
          "type": "bytes4"
        }
      ],
      "name": "supportsInterface",
      "outputs": [
        {
          "internalType": "bool",
          "name": "",
          "type": "bool"
        }
      ],
      "stateMutability": "view",
      "type": "function"
    },
    {
      "inputs": [],
      "name": "symbol",
      "outputs": [
        {
          "internalType": "string",
          "name": "",
          "type": "string"
        }
      ],
      "stateMutability": "view",
      "type": "function"
    },
    {
      "inputs": [
        {
          "internalType": "uint256",
          "name": "tokenId",
          "type": "uint256"
        }
      ],
      "name": "tokenURI",
      "outputs": [
        {
          "internalType": "string",
          "name": "",
          "type": "string"
        }
      ],
      "stateMutability": "view",
      "type": "function"
    },
    {
      "inputs": [
        {
          "internalType": "address",
          "name": "from",
          "type": "address"
        },
        {
          "internalType": "address",
          "name": "to",
          "type": "address"
        },
        {
          "internalType": "uint256",
          "name": "tokenId",
          "type": "uint256"
        }
      ],
      "name": "transferFrom",
      "outputs": [],
      "stateMutability": "nonpayable",
      "type": "function"
    }
  ],
  "transactionHash": "0x082a32a3ff3aecc9a5729fb61768c565f0201a7724fc8e286e6c20a28df97941",
  "args": [],
  "numDeployments": 1,
  "solcInputHash": "2f4aed34b8499a50a4a252a7f4718162",
  "bytecode": "0x60806040523480156200001157600080fd5b506040518060400160405280600681526020017f446f6767696500000000000000000000000000000000000000000000000000008152506040518060400160405280600381526020017f444f470000000000000000000000000000000000000000000000000000000000815250816000908051906020019062000096929190620000c0565b508060019080519060200190620000af929190620000c0565b5050506000600681905550620001d5565b828054620000ce9062000170565b90600052602060002090601f016020900481019282620000f257600085556200013e565b82601f106200010d57805160ff19168380011785556200013e565b828001600101855582156200013e579182015b828111156200013d57825182559160200191906001019062000120565b5b5090506200014d919062000151565b5090565b5b808211156200016c57600081600090555060010162000152565b5090565b600060028204905060018216806200018957607f821691505b60208210811415620001a0576200019f620001a6565b5b50919050565b7f4e487b7100000000000000000000000000000000000000000000000000000000600052602260045260246000fd5b6124a080620001e56000396000f3fe608060405234801561001057600080fd5b50600436106101005760003560e01c806370a0823111610097578063b88d4fde11610066578063b88d4fde146102ad578063c2229fea146102c9578063c87b56dd146102e7578063e985e9c51461031757610100565b806370a082311461022557806378ce90351461025557806395d89b4114610273578063a22cb4651461029157610100565b806323b872dd116100d357806323b872dd1461019f57806342842e0e146101bb5780636352211e146101d75780636e02007d1461020757610100565b806301ffc9a71461010557806306fdde0314610135578063081812fc14610153578063095ea7b314610183575b600080fd5b61011f600480360381019061011a91906117ae565b610347565b60405161012c9190611b02565b60405180910390f35b61013d610429565b60405161014a9190611b1d565b60405180910390f35b61016d60048036038101906101689190611808565b6104bb565b60405161017a9190611a9b565b60405180910390f35b61019d6004803603810190610198919061176e565b610540565b005b6101b960048036038101906101b49190611658565b610658565b005b6101d560048036038101906101d09190611658565b6106b8565b005b6101f160048036038101906101ec9190611808565b6106d8565b6040516101fe9190611a9b565b60405180910390f35b61020f61078a565b60405161021c9190611cdf565b60405180910390f35b61023f600480360381019061023a91906115eb565b610794565b60405161024c9190611cdf565b60405180910390f35b61025d61084c565b60405161026a9190611b1d565b60405180910390f35b61027b610868565b6040516102889190611b1d565b60405180910390f35b6102ab60048036038101906102a6919061172e565b6108fa565b005b6102c760048036038101906102c291906116ab565b610910565b005b6102d1610972565b6040516102de9190611cdf565b60405180910390f35b61030160048036038101906102fc9190611808565b6109a0565b60405161030e9190611b1d565b60405180910390f35b610331600480360381019061032c9190611618565b6109c2565b60405161033e9190611b02565b60405180910390f35b60007f80ac58cd000000000000000000000000000000000000000000000000000000007bffffffffffffffffffffffffffffffffffffffffffffffffffffffff1916827bffffffffffffffffffffffffffffffffffffffffffffffffffffffff1916148061041257507f5b5e139f000000000000000000000000000000000000000000000000000000007bffffffffffffffffffffffffffffffffffffffffffffffffffffffff1916827bffffffffffffffffffffffffffffffffffffffffffffffffffffffff1916145b80610422575061042182610a56565b5b9050919050565b60606000805461043890611ec8565b80601f016020809104026020016040519081016040528092919081815260200182805461046490611ec8565b80156104b15780601f10610486576101008083540402835291602001916104b1565b820191906000526020600020905b81548152906001019060200180831161049457829003601f168201915b5050505050905090565b60006104c682610ac0565b610505576040517f08c379a00000000000000000000000000000000000000000000000000000000081526004016104fc90611c7f565b60405180910390fd5b6004600083815260200190815260200160002060009054906101000a900473ffffffffffffffffffffffffffffffffffffffff169050919050565b600061054b826106d8565b90508073ffffffffffffffffffffffffffffffffffffffff168373ffffffffffffffffffffffffffffffffffffffff1614156105bc576040517f08c379a00000000000000000000000000000000000000000000000000000000081526004016105b390611c9f565b60405180910390fd5b8073ffffffffffffffffffffffffffffffffffffffff166105db610b2c565b73ffffffffffffffffffffffffffffffffffffffff16148061060a575061060981610604610b2c565b6109c2565b5b610649576040517f08c379a000000000000000000000000000000000000000000000000000000000815260040161064090611bff565b60405180910390fd5b6106538383610b34565b505050565b610669610663610b2c565b82610bed565b6106a8576040517f08c379a000000000000000000000000000000000000000000000000000000000815260040161069f90611cbf565b60405180910390fd5b6106b3838383610ccb565b505050565b6106d383838360405180602001604052806000815250610910565b505050565b6000806002600084815260200190815260200160002060009054906101000a900473ffffffffffffffffffffffffffffffffffffffff169050600073ffffffffffffffffffffffffffffffffffffffff168173ffffffffffffffffffffffffffffffffffffffff161415610781576040517f08c379a000000000000000000000000000000000000000000000000000000000815260040161077890611c3f565b60405180910390fd5b80915050919050565b6000600654905090565b60008073ffffffffffffffffffffffffffffffffffffffff168273ffffffffffffffffffffffffffffffffffffffff161415610805576040517f08c379a00000000000000000000000000000000000000000000000000000000081526004016107fc90611c1f565b60405180910390fd5b600360008373ffffffffffffffffffffffffffffffffffffffff1673ffffffffffffffffffffffffffffffffffffffff168152602001908152602001600020549050919050565b6040518060800160405280605781526020016124146057913981565b60606001805461087790611ec8565b80601f01602080910402602001604051908101604052809291908181526020018280546108a390611ec8565b80156108f05780601f106108c5576101008083540402835291602001916108f0565b820191906000526020600020905b8154815290600101906020018083116108d357829003601f168201915b5050505050905090565b61090c610905610b2c565b8383610f32565b5050565b61092161091b610b2c565b83610bed565b610960576040517f08c379a000000000000000000000000000000000000000000000000000000000815260040161095790611cbf565b60405180910390fd5b61096c8484848461109f565b50505050565b6000610980336006546110fb565b6006600081548092919061099390611f2b565b9190505550600654905090565b6060604051806080016040528060578152602001612414605791399050919050565b6000600560008473ffffffffffffffffffffffffffffffffffffffff1673ffffffffffffffffffffffffffffffffffffffff16815260200190815260200160002060008373ffffffffffffffffffffffffffffffffffffffff1673ffffffffffffffffffffffffffffffffffffffff16815260200190815260200160002060009054906101000a900460ff16905092915050565b60007f01ffc9a7000000000000000000000000000000000000000000000000000000007bffffffffffffffffffffffffffffffffffffffffffffffffffffffff1916827bffffffffffffffffffffffffffffffffffffffffffffffffffffffff1916149050919050565b60008073ffffffffffffffffffffffffffffffffffffffff166002600084815260200190815260200160002060009054906101000a900473ffffffffffffffffffffffffffffffffffffffff1673ffffffffffffffffffffffffffffffffffffffff1614159050919050565b600033905090565b816004600083815260200190815260200160002060006101000a81548173ffffffffffffffffffffffffffffffffffffffff021916908373ffffffffffffffffffffffffffffffffffffffff160217905550808273ffffffffffffffffffffffffffffffffffffffff16610ba7836106d8565b73ffffffffffffffffffffffffffffffffffffffff167f8c5be1e5ebec7d5bd14f71427d1e84f3dd0314c0f7b2291e5b200ac8c7c3b92560405160405180910390a45050565b6000610bf882610ac0565b610c37576040517f08c379a0000000000000000000000000000000000000000000000000000000008152600401610c2e90611bdf565b60405180910390fd5b6000610c42836106d8565b90508073ffffffffffffffffffffffffffffffffffffffff168473ffffffffffffffffffffffffffffffffffffffff161480610c845750610c8381856109c2565b5b80610cc257508373ffffffffffffffffffffffffffffffffffffffff16610caa846104bb565b73ffffffffffffffffffffffffffffffffffffffff16145b91505092915050565b8273ffffffffffffffffffffffffffffffffffffffff16610ceb826106d8565b73ffffffffffffffffffffffffffffffffffffffff1614610d41576040517f08c379a0000000000000000000000000000000000000000000000000000000008152600401610d3890611b5f565b60405180910390fd5b600073ffffffffffffffffffffffffffffffffffffffff168273ffffffffffffffffffffffffffffffffffffffff161415610db1576040517f08c379a0000000000000000000000000000000000000000000000000000000008152600401610da890611b9f565b60405180910390fd5b610dbc838383611119565b610dc7600082610b34565b6001600360008573ffffffffffffffffffffffffffffffffffffffff1673ffffffffffffffffffffffffffffffffffffffff1681526020019081526020016000206000828254610e179190611dde565b925050819055506001600360008473ffffffffffffffffffffffffffffffffffffffff1673ffffffffffffffffffffffffffffffffffffffff1681526020019081526020016000206000828254610e6e9190611d88565b92505081905550816002600083815260200190815260200160002060006101000a81548173ffffffffffffffffffffffffffffffffffffffff021916908373ffffffffffffffffffffffffffffffffffffffff160217905550808273ffffffffffffffffffffffffffffffffffffffff168473ffffffffffffffffffffffffffffffffffffffff167fddf252ad1be2c89b69c2b068fc378daa952ba7f163c4a11628f55a4df523b3ef60405160405180910390a4610f2d83838361111e565b505050565b8173ffffffffffffffffffffffffffffffffffffffff168373ffffffffffffffffffffffffffffffffffffffff161415610fa1576040517f08c379a0000000000000000000000000000000000000000000000000000000008152600401610f9890611bbf565b60405180910390fd5b80600560008573ffffffffffffffffffffffffffffffffffffffff1673ffffffffffffffffffffffffffffffffffffffff16815260200190815260200160002060008473ffffffffffffffffffffffffffffffffffffffff1673ffffffffffffffffffffffffffffffffffffffff16815260200190815260200160002060006101000a81548160ff0219169083151502179055508173ffffffffffffffffffffffffffffffffffffffff168373ffffffffffffffffffffffffffffffffffffffff167f17307eab39ab6107e8899845ad3d59bd9653f200f220920489ca2b5937696c31836040516110929190611b02565b60405180910390a3505050565b6110aa848484610ccb565b6110b684848484611123565b6110f5576040517f08c379a00000000000000000000000000000000000000000000000000000000081526004016110ec90611b3f565b60405180910390fd5b50505050565b6111158282604051806020016040528060008152506112ba565b5050565b505050565b505050565b60006111448473ffffffffffffffffffffffffffffffffffffffff16611315565b156112ad578373ffffffffffffffffffffffffffffffffffffffff1663150b7a0261116d610b2c565b8786866040518563ffffffff1660e01b815260040161118f9493929190611ab6565b602060405180830381600087803b1580156111a957600080fd5b505af19250505080156111da57506040513d601f19601f820116820180604052508101906111d791906117db565b60015b61125d573d806000811461120a576040519150601f19603f3d011682016040523d82523d6000602084013e61120f565b606091505b50600081511415611255576040517f08c379a000000000000000000000000000000000000000000000000000000000815260040161124c90611b3f565b60405180910390fd5b805181602001fd5b63150b7a0260e01b7bffffffffffffffffffffffffffffffffffffffffffffffffffffffff1916817bffffffffffffffffffffffffffffffffffffffffffffffffffffffff1916149150506112b2565b600190505b949350505050565b6112c48383611338565b6112d16000848484611123565b611310576040517f08c379a000000000000000000000000000000000000000000000000000000000815260040161130790611b3f565b60405180910390fd5b505050565b6000808273ffffffffffffffffffffffffffffffffffffffff163b119050919050565b600073ffffffffffffffffffffffffffffffffffffffff168273ffffffffffffffffffffffffffffffffffffffff1614156113a8576040517f08c379a000000000000000000000000000000000000000000000000000000000815260040161139f90611c5f565b60405180910390fd5b6113b181610ac0565b156113f1576040517f08c379a00000000000000000000000000000000000000000000000000000000081526004016113e890611b7f565b60405180910390fd5b6113fd60008383611119565b6001600360008473ffffffffffffffffffffffffffffffffffffffff1673ffffffffffffffffffffffffffffffffffffffff168152602001908152602001600020600082825461144d9190611d88565b92505081905550816002600083815260200190815260200160002060006101000a81548173ffffffffffffffffffffffffffffffffffffffff021916908373ffffffffffffffffffffffffffffffffffffffff160217905550808273ffffffffffffffffffffffffffffffffffffffff16600073ffffffffffffffffffffffffffffffffffffffff167fddf252ad1be2c89b69c2b068fc378daa952ba7f163c4a11628f55a4df523b3ef60405160405180910390a461150e6000838361111e565b5050565b600061152561152084611d1f565b611cfa565b90508281526020810184848401111561154157611540612006565b5b61154c848285611e86565b509392505050565b600081359050611563816123b7565b92915050565b600081359050611578816123ce565b92915050565b60008135905061158d816123e5565b92915050565b6000815190506115a2816123e5565b92915050565b600082601f8301126115bd576115bc612001565b5b81356115cd848260208601611512565b91505092915050565b6000813590506115e5816123fc565b92915050565b60006020828403121561160157611600612010565b5b600061160f84828501611554565b91505092915050565b6000806040838503121561162f5761162e612010565b5b600061163d85828601611554565b925050602061164e85828601611554565b9150509250929050565b60008060006060848603121561167157611670612010565b5b600061167f86828701611554565b935050602061169086828701611554565b92505060406116a1868287016115d6565b9150509250925092565b600080600080608085870312156116c5576116c4612010565b5b60006116d387828801611554565b94505060206116e487828801611554565b93505060406116f5878288016115d6565b925050606085013567ffffffffffffffff8111156117165761171561200b565b5b611722878288016115a8565b91505092959194509250565b6000806040838503121561174557611744612010565b5b600061175385828601611554565b925050602061176485828601611569565b9150509250929050565b6000806040838503121561178557611784612010565b5b600061179385828601611554565b92505060206117a4858286016115d6565b9150509250929050565b6000602082840312156117c4576117c3612010565b5b60006117d28482850161157e565b91505092915050565b6000602082840312156117f1576117f0612010565b5b60006117ff84828501611593565b91505092915050565b60006020828403121561181e5761181d612010565b5b600061182c848285016115d6565b91505092915050565b61183e81611e12565b82525050565b61184d81611e24565b82525050565b600061185e82611d50565b6118688185611d66565b9350611878818560208601611e95565b61188181612015565b840191505092915050565b600061189782611d5b565b6118a18185611d77565b93506118b1818560208601611e95565b6118ba81612015565b840191505092915050565b60006118d2603283611d77565b91506118dd82612026565b604082019050919050565b60006118f5602583611d77565b915061190082612075565b604082019050919050565b6000611918601c83611d77565b9150611923826120c4565b602082019050919050565b600061193b602483611d77565b9150611946826120ed565b604082019050919050565b600061195e601983611d77565b91506119698261213c565b602082019050919050565b6000611981602c83611d77565b915061198c82612165565b604082019050919050565b60006119a4603883611d77565b91506119af826121b4565b604082019050919050565b60006119c7602a83611d77565b91506119d282612203565b604082019050919050565b60006119ea602983611d77565b91506119f582612252565b604082019050919050565b6000611a0d602083611d77565b9150611a18826122a1565b602082019050919050565b6000611a30602c83611d77565b9150611a3b826122ca565b604082019050919050565b6000611a53602183611d77565b9150611a5e82612319565b604082019050919050565b6000611a76603183611d77565b9150611a8182612368565b604082019050919050565b611a9581611e7c565b82525050565b6000602082019050611ab06000830184611835565b92915050565b6000608082019050611acb6000830187611835565b611ad86020830186611835565b611ae56040830185611a8c565b8181036060830152611af78184611853565b905095945050505050565b6000602082019050611b176000830184611844565b92915050565b60006020820190508181036000830152611b37818461188c565b905092915050565b60006020820190508181036000830152611b58816118c5565b9050919050565b60006020820190508181036000830152611b78816118e8565b9050919050565b60006020820190508181036000830152611b988161190b565b9050919050565b60006020820190508181036000830152611bb88161192e565b9050919050565b60006020820190508181036000830152611bd881611951565b9050919050565b60006020820190508181036000830152611bf881611974565b9050919050565b60006020820190508181036000830152611c1881611997565b9050919050565b60006020820190508181036000830152611c38816119ba565b9050919050565b60006020820190508181036000830152611c58816119dd565b9050919050565b60006020820190508181036000830152611c7881611a00565b9050919050565b60006020820190508181036000830152611c9881611a23565b9050919050565b60006020820190508181036000830152611cb881611a46565b9050919050565b60006020820190508181036000830152611cd881611a69565b9050919050565b6000602082019050611cf46000830184611a8c565b92915050565b6000611d04611d15565b9050611d108282611efa565b919050565b6000604051905090565b600067ffffffffffffffff821115611d3a57611d39611fd2565b5b611d4382612015565b9050602081019050919050565b600081519050919050565b600081519050919050565b600082825260208201905092915050565b600082825260208201905092915050565b6000611d9382611e7c565b9150611d9e83611e7c565b9250827fffffffffffffffffffffffffffffffffffffffffffffffffffffffffffffffff03821115611dd357611dd2611f74565b5b828201905092915050565b6000611de982611e7c565b9150611df483611e7c565b925082821015611e0757611e06611f74565b5b828203905092915050565b6000611e1d82611e5c565b9050919050565b60008115159050919050565b60007fffffffff0000000000000000000000000000000000000000000000000000000082169050919050565b600073ffffffffffffffffffffffffffffffffffffffff82169050919050565b6000819050919050565b82818337600083830152505050565b60005b83811015611eb3578082015181840152602081019050611e98565b83811115611ec2576000848401525b50505050565b60006002820490506001821680611ee057607f821691505b60208210811415611ef457611ef3611fa3565b5b50919050565b611f0382612015565b810181811067ffffffffffffffff82111715611f2257611f21611fd2565b5b80604052505050565b6000611f3682611e7c565b91507fffffffffffffffffffffffffffffffffffffffffffffffffffffffffffffffff821415611f6957611f68611f74565b5b600182019050919050565b7f4e487b7100000000000000000000000000000000000000000000000000000000600052601160045260246000fd5b7f4e487b7100000000000000000000000000000000000000000000000000000000600052602260045260246000fd5b7f4e487b7100000000000000000000000000000000000000000000000000000000600052604160045260246000fd5b600080fd5b600080fd5b600080fd5b600080fd5b6000601f19601f8301169050919050565b7f4552433732313a207472616e7366657220746f206e6f6e20455243373231526560008201527f63656976657220696d706c656d656e7465720000000000000000000000000000602082015250565b7f4552433732313a207472616e736665722066726f6d20696e636f72726563742060008201527f6f776e6572000000000000000000000000000000000000000000000000000000602082015250565b7f4552433732313a20746f6b656e20616c7265616479206d696e74656400000000600082015250565b7f4552433732313a207472616e7366657220746f20746865207a65726f2061646460008201527f7265737300000000000000000000000000000000000000000000000000000000602082015250565b7f4552433732313a20617070726f766520746f2063616c6c657200000000000000600082015250565b7f4552433732313a206f70657261746f7220717565727920666f72206e6f6e657860008201527f697374656e7420746f6b656e0000000000000000000000000000000000000000602082015250565b7f4552433732313a20617070726f76652063616c6c6572206973206e6f74206f7760008201527f6e6572206e6f7220617070726f76656420666f7220616c6c0000000000000000602082015250565b7f4552433732313a2062616c616e636520717565727920666f7220746865207a6560008201527f726f206164647265737300000000000000000000000000000000000000000000602082015250565b7f4552433732313a206f776e657220717565727920666f72206e6f6e657869737460008201527f656e7420746f6b656e0000000000000000000000000000000000000000000000602082015250565b7f4552433732313a206d696e7420746f20746865207a65726f2061646472657373600082015250565b7f4552433732313a20617070726f76656420717565727920666f72206e6f6e657860008201527f697374656e7420746f6b656e0000000000000000000000000000000000000000602082015250565b7f4552433732313a20617070726f76616c20746f2063757272656e74206f776e6560008201527f7200000000000000000000000000000000000000000000000000000000000000602082015250565b7f4552433732313a207472616e736665722063616c6c6572206973206e6f74206f60008201527f776e6572206e6f7220617070726f766564000000000000000000000000000000602082015250565b6123c081611e12565b81146123cb57600080fd5b50565b6123d781611e24565b81146123e257600080fd5b50565b6123ee81611e30565b81146123f957600080fd5b50565b61240581611e7c565b811461241057600080fd5b5056fe697066733a2f2f62616679626569673337696f6972373673376d67356f6f6265746e636f6a636d3363336878617379643472766964346a71687934676b61686567342f3f66696c656e616d653d302d5055472e6a736f6ea264697066735822122072027da103dc2967adb5a529d4cdaa54b59b1869f180381304417e2bef7d9ce064736f6c63430008070033",
  "devdoc": {
    "kind": "dev",
    "methods": {
      "approve(address,uint256)": {
        "details": "See {IERC721-approve}."
      },
      "balanceOf(address)": {
        "details": "See {IERC721-balanceOf}."
      },
      "getApproved(uint256)": {
        "details": "See {IERC721-getApproved}."
      },
      "isApprovedForAll(address,address)": {
        "details": "See {IERC721-isApprovedForAll}."
      },
      "name()": {
        "details": "See {IERC721Metadata-name}."
      },
      "ownerOf(uint256)": {
        "details": "See {IERC721-ownerOf}."
      },
      "safeTransferFrom(address,address,uint256)": {
        "details": "See {IERC721-safeTransferFrom}."
      },
      "safeTransferFrom(address,address,uint256,bytes)": {
        "details": "See {IERC721-safeTransferFrom}."
      },
      "setApprovalForAll(address,bool)": {
        "details": "See {IERC721-setApprovalForAll}."
      },
      "supportsInterface(bytes4)": {
        "details": "See {IERC165-supportsInterface}."
      },
      "symbol()": {
        "details": "See {IERC721Metadata-symbol}."
      },
      "tokenURI(uint256)": {
        "details": "See {IERC721Metadata-tokenURI}."
      },
      "transferFrom(address,address,uint256)": {
        "details": "See {IERC721-transferFrom}."
      }
    },
    "version": 1
  },
  "userdoc": {
    "kind": "user",
    "methods": {},
    "version": 1
  },
  "storageLayout": {
    "storage": [
      {
        "astId": 65,
        "contract": "contracts/test/BasicNft.sol:BasicNFT",
        "label": "_name",
        "offset": 0,
        "slot": "0",
        "type": "t_string_storage"
      },
      {
        "astId": 67,
        "contract": "contracts/test/BasicNft.sol:BasicNFT",
        "label": "_symbol",
        "offset": 0,
        "slot": "1",
        "type": "t_string_storage"
      },
      {
        "astId": 71,
        "contract": "contracts/test/BasicNft.sol:BasicNFT",
        "label": "_owners",
        "offset": 0,
        "slot": "2",
        "type": "t_mapping(t_uint256,t_address)"
      },
      {
        "astId": 75,
        "contract": "contracts/test/BasicNft.sol:BasicNFT",
        "label": "_balances",
        "offset": 0,
        "slot": "3",
        "type": "t_mapping(t_address,t_uint256)"
      },
      {
        "astId": 79,
        "contract": "contracts/test/BasicNft.sol:BasicNFT",
        "label": "_tokenApprovals",
        "offset": 0,
        "slot": "4",
        "type": "t_mapping(t_uint256,t_address)"
      },
      {
        "astId": 85,
        "contract": "contracts/test/BasicNft.sol:BasicNFT",
        "label": "_operatorApprovals",
        "offset": 0,
        "slot": "5",
        "type": "t_mapping(t_address,t_mapping(t_address,t_bool))"
      },
      {
        "astId": 2097,
        "contract": "contracts/test/BasicNft.sol:BasicNFT",
        "label": "s_tokenCounter",
        "offset": 0,
        "slot": "6",
        "type": "t_uint256"
      }
    ],
    "types": {
      "t_address": {
        "encoding": "inplace",
        "label": "address",
        "numberOfBytes": "20"
      },
      "t_bool": {
        "encoding": "inplace",
        "label": "bool",
        "numberOfBytes": "1"
      },
      "t_mapping(t_address,t_bool)": {
        "encoding": "mapping",
        "key": "t_address",
        "label": "mapping(address => bool)",
        "numberOfBytes": "32",
        "value": "t_bool"
      },
      "t_mapping(t_address,t_mapping(t_address,t_bool))": {
        "encoding": "mapping",
        "key": "t_address",
        "label": "mapping(address => mapping(address => bool))",
        "numberOfBytes": "32",
        "value": "t_mapping(t_address,t_bool)"
      },
      "t_mapping(t_address,t_uint256)": {
        "encoding": "mapping",
        "key": "t_address",
        "label": "mapping(address => uint256)",
        "numberOfBytes": "32",
        "value": "t_uint256"
      },
      "t_mapping(t_uint256,t_address)": {
        "encoding": "mapping",
        "key": "t_uint256",
        "label": "mapping(uint256 => address)",
        "numberOfBytes": "32",
        "value": "t_address"
      },
      "t_string_storage": {
        "encoding": "bytes",
        "label": "string",
        "numberOfBytes": "32"
      },
      "t_uint256": {
        "encoding": "inplace",
        "label": "uint256",
        "numberOfBytes": "32"
      }
    }
  }
}